{
  "contractName": "TicTacToe",
  "abi": [
    {
      "constant": true,
      "inputs": [],
      "name": "getPlayer1",
      "outputs": [
        {
          "name": "",
          "type": "address"
        }
      ],
      "payable": false,
      "stateMutability": "view",
      "type": "function"
    },
    {
      "constant": true,
      "inputs": [],
      "name": "getPlayer2",
      "outputs": [
        {
          "name": "",
          "type": "address"
        }
      ],
      "payable": false,
      "stateMutability": "view",
      "type": "function"
    },
    {
      "constant": true,
      "inputs": [],
      "name": "playerCount",
      "outputs": [
        {
          "name": "",
          "type": "uint256"
        }
      ],
      "payable": false,
      "stateMutability": "view",
      "type": "function"
    },
    {
      "constant": true,
      "inputs": [],
      "name": "MAX_PLAYERS",
      "outputs": [
        {
          "name": "",
          "type": "uint8"
        }
      ],
      "payable": false,
      "stateMutability": "view",
      "type": "function"
    },
    {
      "constant": true,
      "inputs": [],
      "name": "getCurrentPlayer",
      "outputs": [
        {
          "name": "",
          "type": "address"
        }
      ],
      "payable": false,
      "stateMutability": "view",
      "type": "function"
    },
    {
      "constant": true,
      "inputs": [],
      "name": "currentToken",
      "outputs": [
        {
          "name": "",
          "type": "uint8"
        }
      ],
      "payable": false,
      "stateMutability": "view",
      "type": "function"
    },
    {
      "constant": false,
      "inputs": [],
      "name": "join",
      "outputs": [],
      "payable": true,
      "stateMutability": "payable",
      "type": "function"
    },
    {
      "constant": false,
      "inputs": [],
      "name": "resetGame",
      "outputs": [],
      "payable": false,
      "stateMutability": "nonpayable",
      "type": "function"
    },
    {
      "constant": false,
      "inputs": [
        {
          "name": "x",
          "type": "uint8"
        },
        {
          "name": "y",
          "type": "uint8"
        }
      ],
      "name": "setToken",
      "outputs": [
        {
          "name": "",
          "type": "bool"
        }
      ],
      "payable": false,
      "stateMutability": "nonpayable",
      "type": "function"
    },
    {
      "constant": true,
      "inputs": [],
      "name": "allPlayersJoined",
      "outputs": [
        {
          "name": "",
          "type": "bool"
        }
      ],
      "payable": false,
      "stateMutability": "view",
      "type": "function"
    },
    {
      "constant": true,
      "inputs": [],
      "name": "PRIZE",
      "outputs": [
        {
          "name": "",
          "type": "uint256"
        }
      ],
      "payable": false,
      "stateMutability": "view",
      "type": "function"
    },
    {
      "constant": true,
      "inputs": [
        {
          "name": "x",
          "type": "uint8"
        },
        {
          "name": "y",
          "type": "uint8"
        }
      ],
      "name": "getToken",
      "outputs": [
        {
          "name": "",
          "type": "uint256"
        }
      ],
      "payable": false,
      "stateMutability": "view",
      "type": "function"
    },
    {
      "constant": true,
      "inputs": [],
      "name": "gameNumber",
      "outputs": [
        {
          "name": "",
          "type": "uint256"
        }
      ],
      "payable": false,
      "stateMutability": "view",
      "type": "function"
    },
    {
      "constant": true,
      "inputs": [],
      "name": "BOARD_SIZE",
      "outputs": [
        {
          "name": "",
          "type": "uint8"
        }
      ],
      "payable": false,
      "stateMutability": "view",
      "type": "function"
    },
    {
      "inputs": [],
      "payable": false,
      "stateMutability": "nonpayable",
      "type": "constructor"
    }
  ],
  "bytecode": "0x606060405260036000806101000a81548160ff021916908360ff1602179055506002600060016101000a81548160ff021916908360ff1602179055506064600155600060025560006003556000600460006101000a81548160ff0219169083600281111561006957fe5b0217905550341561007957600080fd5b61009461009964010000000002610587176401000000009004565b610237565b6000806000600460006101000a81548160ff021916908360028111156100bb57fe5b0217905550600091505b6000809054906101000a900460ff1660ff168260ff16101561016e57600090505b6000809054906101000a900460ff1660ff168160ff161015610161576000600560008460ff1660ff16815260200190815260200160002060008360ff1660ff16815260200190815260200160002060006101000a81548160ff0219169083600281111561014f57fe5b021790555080806001019150506100e6565b81806001019250506100c5565b60006002819055506000600660006001600281111561018957fe5b815260200190815260200160002060006101000a81548173ffffffffffffffffffffffffffffffffffffffff021916908373ffffffffffffffffffffffffffffffffffffffff1602179055506000600660006002808111156101e757fe5b815260200190815260200160002060006101000a81548173ffffffffffffffffffffffffffffffffffffffff021916908373ffffffffffffffffffffffffffffffffffffffff1602179055505050565b610dca806102466000396000f3006060604052600436106100d0576000357c0100000000000000000000000000000000000000000000000000000000900463ffffffff16806301ab2a66146100d55780631bb6cb471461012a578063302bcc571461017f5780634411b3eb146101a8578063476e6172146101d7578063836c081d1461022c578063b688a36314610263578063bb4722191461026d578063bddc979414610282578063bed91ff6146102cc578063c05390f6146102f9578063c7978e5114610322578063d8d40cee14610368578063dc4a3e9514610391575b600080fd5b34156100e057600080fd5b6100e86103c0565b604051808273ffffffffffffffffffffffffffffffffffffffff1673ffffffffffffffffffffffffffffffffffffffff16815260200191505060405180910390f35b341561013557600080fd5b61013d610407565b604051808273ffffffffffffffffffffffffffffffffffffffff1673ffffffffffffffffffffffffffffffffffffffff16815260200191505060405180910390f35b341561018a57600080fd5b61019261044d565b6040518082815260200191505060405180910390f35b34156101b357600080fd5b6101bb610453565b604051808260ff1660ff16815260200191505060405180910390f35b34156101e257600080fd5b6101ea610466565b604051808273ffffffffffffffffffffffffffffffffffffffff1673ffffffffffffffffffffffffffffffffffffffff16815260200191505060405180910390f35b341561023757600080fd5b61023f6104bb565b6040518082600281111561024f57fe5b60ff16815260200191505060405180910390f35b61026b6104ce565b005b341561027857600080fd5b610280610587565b005b341561028d57600080fd5b6102b2600480803560ff1690602001909190803560ff16906020019091905050610725565b604051808215151515815260200191505060405180910390f35b34156102d757600080fd5b6102df610806565b604051808215151515815260200191505060405180910390f35b341561030457600080fd5b61030c610823565b6040518082815260200191505060405180910390f35b341561032d57600080fd5b610352600480803560ff1690602001909190803560ff16906020019091905050610829565b6040518082815260200191505060405180910390f35b341561037357600080fd5b61037b6108a1565b6040518082815260200191505060405180910390f35b341561039c57600080fd5b6103a46108a7565b604051808260ff1660ff16815260200191505060405180910390f35b600060066000600160028111156103d357fe5b815260200190815260200160002060009054906101000a900473ffffffffffffffffffffffffffffffffffffffff16905090565b60006006600060028081111561041957fe5b815260200190815260200160002060009054906101000a900473ffffffffffffffffffffffffffffffffffffffff16905090565b60025481565b600060019054906101000a900460ff1681565b600060066000600460009054906101000a900460ff16600281111561048757fe5b815260200190815260200160002060009054906101000a900473ffffffffffffffffffffffffffffffffffffffff16905090565b600460009054906101000a900460ff1681565b600154341415806104e357506104e2610806565b5b156104ed57600080fd5b6002600081548092919060010191905055503360066000600254815260200190815260200160002060006101000a81548173ffffffffffffffffffffffffffffffffffffffff021916908373ffffffffffffffffffffffffffffffffffffffff16021790555061055b610806565b15610585576001600460006101000a81548160ff0219169083600281111561057f57fe5b02179055505b565b6000806000600460006101000a81548160ff021916908360028111156105a957fe5b0217905550600091505b6000809054906101000a900460ff1660ff168260ff16101561065c57600090505b6000809054906101000a900460ff1660ff168160ff16101561064f576000600560008460ff1660ff16815260200190815260200160002060008360ff1660ff16815260200190815260200160002060006101000a81548160ff0219169083600281111561063d57fe5b021790555080806001019150506105d4565b81806001019250506105b3565b60006002819055506000600660006001600281111561067757fe5b815260200190815260200160002060006101000a81548173ffffffffffffffffffffffffffffffffffffffff021916908373ffffffffffffffffffffffffffffffffffffffff1602179055506000600660006002808111156106d557fe5b815260200190815260200160002060006101000a81548173ffffffffffffffffffffffffffffffffffffffff021916908373ffffffffffffffffffffffffffffffffffffffff1602179055505050565b6000610730836108b9565b15806107425750610740826108b9565b155b156107505760009050610800565b61075a83836108d9565b156107685760009050610800565b600460009054906101000a900460ff16600560008560ff1660ff16815260200190815260200160002060008460ff1660ff16815260200190815260200160002060006101000a81548160ff021916908360028111156107c357fe5b02179055506107d061093a565b156107f2576107e56107e0610466565b610a1e565b6107ed610587565b6107fb565b6107fa610a78565b5b600190505b92915050565b60008060019054906101000a900460ff1660ff1660025414905090565b60015481565b6000610834836108b9565b15806108465750610844826108b9565b155b1561085057600080fd5b600560008460ff1660ff16815260200190815260200160002060008360ff1660ff16815260200190815260200160002060009054906101000a900460ff16600281111561089957fe5b905092915050565b60035481565b6000809054906101000a900460ff1681565b60008060009054906101000a900460ff1660ff168260ff16109050919050565b60008060028111156108e757fe5b600560008560ff1660ff16815260200190815260200160002060008460ff1660ff16815260200190815260200160002060009054906101000a900460ff16600281111561093057fe5b1415905092915050565b60008060008091505b6000809054906101000a900460ff1660ff168260ff16101561098b5761097061096b83610afa565b610b83565b1561097e5760019250610a19565b8180600101925050610943565b600090505b6000809054906101000a900460ff1660ff168160ff1610156109d8576109bd6109b882610ba3565b610b83565b156109cb5760019250610a19565b8080600101915050610990565b6109e86109e3610c2c565b610b83565b156109f65760019250610a19565b610a06610a01610ce4565b610b83565b15610a145760019250610a19565b600092505b505090565b6003600081548092919060010191905055508073ffffffffffffffffffffffffffffffffffffffff166108fc6002600154029081150290604051600060405180830381858888f193505050501515610a7557600080fd5b50565b6000600460009054906101000a900460ff166002811115610a9557fe5b90508080600101915050600060019054906101000a900460ff1660ff16811115610ac95760016002811115610ac657fe5b90505b806002811115610ad557fe5b600460006101000a81548160ff02191690836002811115610af257fe5b021790555050565b60008060008060009250610b0d856108b9565b15610b7857600091505b6000809054906101000a900460ff1660ff168260ff161015610b7757610b3d8286610829565b9050600460009054906101000a900460ff166002811115610b5a57fe5b811415610b6a5782806001019350505b8180600101925050610b17565b5b829350505050919050565b60008060009054906101000a900460ff1660ff168260ff16149050919050565b60008060008060009250610bb6856108b9565b15610c2157600091505b6000809054906101000a900460ff1660ff168260ff161015610c2057610be68583610829565b9050600460009054906101000a900460ff166002811115610c0357fe5b811415610c135782806001019350505b8180600101925050610bc0565b5b829350505050919050565b6000806000809150610c3f600080610829565b9050600460009054906101000a900460ff166002811115610c5c57fe5b811415610c6c5781806001019250505b610c77600180610829565b9050600460009054906101000a900460ff166002811115610c9457fe5b811415610ca45781806001019250505b610caf600280610829565b9050600460009054906101000a900460ff166002811115610ccc57fe5b811415610cdc5781806001019250505b819250505090565b6000806000809150610cf860026000610829565b9050600460009054906101000a900460ff166002811115610d1557fe5b811415610d255781806001019250505b610d30600180610829565b9050600460009054906101000a900460ff166002811115610d4d57fe5b811415610d5d5781806001019250505b610d6960006002610829565b9050600460009054906101000a900460ff166002811115610d8657fe5b811415610d965781806001019250505b8192505050905600a165627a7a72305820c6e911eeb87892a0cad10f3031e34871ae38ae864937ac7d86cf531087a00e0a0029",
  "source": "pragma solidity ^0.4.0;\n\n\ncontract TicTacToe {\n\n    uint8 public BOARD_SIZE = 3;\n\n    uint8 public MAX_PLAYERS = 2;\n\n    uint public PRIZE = 100;\n\n    uint public playerCount = 0;\n\n    uint public gameNumber = 0;\n\n    enum Token {NONE, X, O}\n    Token public currentToken = Token.NONE;\n\n    mapping (uint8 => mapping (uint8 => Token)) board;\n\n    mapping (uint => address) tokenToPlayer;\n\n    function getPlayer1() public view returns (address){\n        return tokenToPlayer[uint(Token.X)];\n    }\n\n    function getPlayer2() public view returns (address){\n        return tokenToPlayer[uint(Token.O)];\n    }\n\n\n    function TicTacToe() public {\n        resetGame();\n    }\n\n    function resetGame() public {\n        currentToken = Token.NONE;\n        for (uint8 x = 0; x < BOARD_SIZE; x++) {\n            for (uint8 y = 0; y < BOARD_SIZE; y++) {\n                board[x][y] = Token.NONE;\n            }\n        }\n        playerCount = 0;\n        tokenToPlayer[uint(Token.X)] = 0x0;\n        tokenToPlayer[uint(Token.O)] = 0x0;\n    }\n\n    function join() public payable {\n        if (msg.value != PRIZE || allPlayersJoined()) {\n            revert();\n        }\n\n        playerCount++;\n        tokenToPlayer[playerCount] = msg.sender;\n\n        if (allPlayersJoined()) {\n            currentToken = Token.X;\n        }\n    }\n\n    function allPlayersJoined() public view returns (bool) {\n        return playerCount == MAX_PLAYERS;\n    }\n\n    function setToken(uint8 x, uint8 y) public returns (bool) {\n\n        if (!isInBounds(x) || !isInBounds(y)) {\n            return false;\n        }\n\n        if (isAlreadySet(x, y)) {\n            return false;\n        }\n\n        board[x][y] = currentToken;\n\n        if (playerWon()) {\n            payOutWinner(getCurrentPlayer());\n            resetGame();}\n        else {\n            nextTurn();\n        }\n\n\n        return true;\n    }\n\n    function getCurrentPlayer() public constant returns (address) {\n        return tokenToPlayer[uint(currentToken)];\n    }\n\n    function nextTurn() private {\n        uint token = uint(currentToken);\n        token++;\n        if (token > MAX_PLAYERS) {\n            token = uint(Token.X);\n        }\n\n        currentToken = Token(token);\n    }\n\n    function isInBounds(uint8 i) private returns (bool) {\n        return i < BOARD_SIZE;\n    }\n\n    function isAlreadySet(uint8 x, uint8 y) private returns (bool){\n        return board[x][y] != Token.NONE;\n    }\n\n    function getToken(uint8 x, uint8 y) public view returns (uint){\n        if (!isInBounds(x) || !isInBounds(y)) {\n            revert();\n        }\n        return uint(board[x][y]);\n    }\n\n    function getPlayerTokenCountFromRow(uint8 row) private returns (uint8){\n        uint8 count = 0;\n        if (isInBounds(row)) {\n            for (uint8 col = 0; col < BOARD_SIZE; col++) {\n                uint token = getToken(col, row);\n                if (token == uint(currentToken)) {\n                    count++;\n                }\n            }\n        }\n        return count;\n    }\n\n    function getPlayerTokenCountFromCol(uint8 col) private returns (uint8){\n        uint8 count = 0;\n        if (isInBounds(col)) {\n            for (uint8 row = 0; row < BOARD_SIZE; row++) {\n                uint token = getToken(col, row);\n                if (token == uint(currentToken)) {\n                    count++;\n                }\n            }\n        }\n        return count;\n    }\n\n    function getPlayerTokenCountFromDiag1() private returns (uint8){\n        uint8 count = 0;\n\n        uint token = getToken(0, 0);\n        if (token == uint(currentToken)) {\n            count++;\n        }\n\n        token = getToken(1, 1);\n        if (token == uint(currentToken)) {\n            count++;\n        }\n\n        token = getToken(2, 2);\n        if (token == uint(currentToken)) {\n            count++;\n        }\n\n        return count;\n    }\n\n    function getPlayerTokenCountFromDiag2() private returns (uint8){\n        uint8 count = 0;\n\n        uint token = getToken(2, 0);\n        if (token == uint(currentToken)) {\n            count++;\n        }\n\n        token = getToken(1, 1);\n        if (token == uint(currentToken)) {\n            count++;\n        }\n\n        token = getToken(0, 2);\n        if (token == uint(currentToken)) {\n            count++;\n        }\n\n        return count;\n    }\n\n    function playerWon() private returns (bool){\n        for (uint8 row = 0; row < BOARD_SIZE; row++) {\n            if (isNeededAmountOfTokensToWin(getPlayerTokenCountFromRow(row))) {\n                return true;\n            }\n        }\n\n        for (uint8 col = 0; col < BOARD_SIZE; col++) {\n            if (isNeededAmountOfTokensToWin(getPlayerTokenCountFromCol(col))) {\n                return true;\n            }\n        }\n\n        if (isNeededAmountOfTokensToWin(getPlayerTokenCountFromDiag1())) {\n            return true;\n        }\n\n        if (isNeededAmountOfTokensToWin(getPlayerTokenCountFromDiag2())) {\n            return true;\n        }\n\n        return false;\n    }\n\n    function isNeededAmountOfTokensToWin(uint8 amountOfTokens) private returns (bool){\n        return amountOfTokens == BOARD_SIZE;\n    }\n\n    function payOutWinner(address winner) private {\n        gameNumber++;\n        winner.transfer(PRIZE * 2);\n    }\n\n}\n",
  "sourcePath": "/home/zcoin/zcoin/dapp/playground_truffle/contracts/TicTacToe.sol",
  "compiler": {
    "name": "solc",
    "version": "0.4.18+commit.9cf6e910.Emscripten.clang"
  },
  "schemaVersion": "1.0.1",
  "updatedAt": "2017-11-12T14:11:00.156Z"
}